:0400000061EF00F0BC
:10000800FACFBCF0FBCFBDF0E9CFBEF0AEED0BF000
:10001800D8CF1FF0E8CF20F0E0CF21F0FACF22F0C0
:10002800FBCF23F0E9CF24F0EACF25F0E1CF26F08B
:10003800E2CF27F0D9CF28F0DACF29F0F3CF2AF092
:10004800F4CF2BF0F6CF2CF0F7CF2DF0F8CF2EF021
:10005800F5CF2FF09EA001D001D004D09E90C4EC23
:100068000DF000D09EAA01D001D004D09E9A03ECD6
:100078000AF000D02FC0F5FF2EC0F8FF2DC0F7FF03
:100088002CC0F6FF2BC0F4FF2AC0F3FF29C0DAFF0B
:1000980028C0D9FF27C0E2FF26C0E1FF25C0EAFF3C
:1000A80024C0E9FF23C0FBFF22C0FAFF21C0E0FF04
:1000B80020C0E8FF1FC0D8FF10001EEF0FF000019E
:1000C800B16F000E00010001BB6F0001B1510001CA
:1000D800B16F000E00010001B66F0001B1510001BF
:1000E800B16F000E00010001BA6F0001B1510001AB
:1000F800B16F000E00010001B96F0001B15100019C
:10010800B16F000E00010001B76F0001B151C6AC1C
:1001180001D001D02AD0C69C000120EE0CF00001CD
:10012800CB51D9260001CC51DA22050EDF6E000131
:10013800B16F010E00010001B76F0001B15100015C
:1001480020EE0EF00001CB51D9260001CC51DA2265
:10015800DF2A000120EE0DF00001CB51D926000165
:10016800CC51DA22040EDF6E00D0C7A001D001D036
:100178000BD0C9CFB8F00001B16F010E000100012A
:10018800BB6F0001B15100D000010001B76701D079
:1001980001D051D239D238D2C7A601D001D04BD222
:1001A800BBC097F0000132EC09F0000120EE0CF022
:1001B8000001CB51D9260001CC51DA22080EDF62AA
:1001C80001D001D038D20001B16F000E000100014A
:1001D800BB6F0001B1510001B16F010E00010001B8
:1001E800B96F0001B15127D226D225D2C7A801D0B4
:1001F80001D040D0000120EE0BF00001CB51D926F0
:100208000001CC51DA22DF2A00010001BB51D8B429
:1002180001D001D023D0C7BA01D001D009D0000144
:10022800B16F010E00010001BA6F0001B15116D083
:10023800000120EE0EF00001CB51D9260001CC516F
:10024800DA22DF2A000120EE0DF00001CB51D92679
:100258000001CC51DA22060EDF6E00D0000120EE3C
:100268000CF00001CB51D9260001CC51DA22050E41
:10027800DF6EE1D100010001BB51D8B401D001D03B
:10028800DAD1000120EE0BF00001CB51D926000194
:10029800CC51DA22DF2AC7BA01D001D02DD0C7B499
:1002A80001D001D00CD0000120EE0CF00001CB51A0
:1002B800D9260001CC51DA22070EDF6EBCD100012D
:1002C80020EE0CF00001CB51D9260001CC51DA22E6
:1002D800080EDF6E0001B16F010E00010001B96F59
:1002E8000001B1510001B16F000E00010001BB6FA8
:1002F8000001B151A0D19FD1000120EE0EF0000104
:10030800CB51D9260001CC51DA22DF2A000120EE98
:100318000CF00001CB51D9260001CC51DA22050E90
:10032800DF6E000120EE0DF00001CB51D92600014F
:10033800CC51DA22060EDF6E7ED17DD17CD17BD105
:10034800000120EE1AF00001CB51D9260001CC5152
:10035800DA22DF500001B16F000120EE19F0000130
:10036800CB51D9260001CC51DA22DF500001B15D12
:10037800D8B001D001D032D0000120EE1AF000012F
:10038800CB51D9260001CC51DA22DF500001B16FE0
:100398000001B151010D0F0EF326000EF422F350A7
:1003A80000010001CB25D96EF45000010001CC21D9
:1003B800DA6EDF50C96E000120EE1AF00001CB5151
:1003C800D9260001CC51DA22DF2A0001B16F010ED3
:1003D80000010001B66F0001B1512DD1000120EEDE
:1003E8000CF00001CB51D9260001CC51DA22050EC0
:1003F800DF6E21D120D1C7A801D001D07BD0000168
:1004080020EE0BF00001CB51D9260001CC51DA22A5
:10041800DF2A00010001BB51D8B401D001D055D06A
:10042800C7AA01D001D02FD0000120EE0AF00001A8
:10043800CB51D9260001CC51DA22DF500001B16F2F
:100448000001B151010DF35000010001CB25D96E17
:10045800F45000010001CC21DA6E0001B8C0DFFFC2
:10046800000120EE0AF00001CB51D9260001CC5141
:10047800DA22DF2A0001B16F010E00010001BA6F14
:100488000001B1512BD0000120EE0EF00001CB513C
:10049800D9260001CC51DA22DF2A000120EE0DF026
:1004A8000001CB51D9260001CC51DA22060EDF6EAD
:1004B800000120EE0CF00001CB51D9260001CC51EF
:1004C800DA22050EDF6E0AD009D00001B16F010EE5
:1004D80000010001BA6F0001B15100D0000120EE07
:1004E8000CF00001CB51D9260001CC51DA22050EBF
:1004F800DF6EA1D000010001BB51D8B401D001D0FA
:100508009AD0000120EE0BF00001CB51D926000152
:10051800CC51DA22DF2AC7AA01D001D027D00001A6
:1005280020EE0AF00001CB51D9260001CC51DA2285
:10053800DF500001B16F0001B151010DF35000010E
:100548000001CB25D96EF45000010001CC21DA6EF0
:100558000001B8C0DFFF000120EE0AF00001CB5116
:10056800D9260001CC51DA22DF2A65D0C7A401D0F0
:1005780001D024D0000120EE0CF00001CB51D92687
:100588000001CC51DA22080EDF6E0001B16F010EB6
:1005980000010001BA6F0001B1510001B16F010EF5
:1005A80000010001B96F0001B1510001B16F000EE7
:1005B80000010001BB6F0001B1513DD0000120EEE8
:1005C8000EF00001CB51D9260001CC51DA22DF2AE6
:1005D800000120EE0DF00001CB51D9260001CC51CD
:1005E800DA22060EDF6E000120EE0CF00001CB517E
:1005F800D9260001CC51DA22050EDF6E1CD01BD0A3
:100608001AD019D018D017D0000120EE0CF0000134
:10061800CB51D9260001CC51DA22DF50050AD8B4D3
:10062800BBD5030AD8B4E2D5010AD8B4E4D60F0A78
:10063800D8B486D600D000010001BB6701D001D034
:1006480007D000010001B651D8B401D001D007D0BD
:10065800C6B801D001D003D0C68801D000D00001AF
:1006680020EE0AF00001CB51D9260001CC51DA2244
:10067800080EDF6401D001D027D000010001BA675D
:1006880001D001D021D0000120EE0CF00001CB51A7
:10069800D9260001CC51DA22050EDF6E000120EECA
:1006A8000EF00001CB51D9260001CC51DA22DF2A05
:1006B800000120EE0DF00001CB51D9260001CC51EC
:1006C800DA22070EDF6E00D000010001BA51D8B45B
:1006D80001D001D050D0000120EE0BF00001CB5129
:1006E800D9260001CC51DA22000110EE0AF00001EF
:1006F800CB51E1260001CC51E222E7500001B16F55
:100708000001B151010DF35000010001CB25E16E4C
:10071800F45000010001CC21E26EDFCFE7FF0001B9
:1007280020EE0AF00001CB51D9260001CC51DA2283
:10073800DF500001B16F0001B12900010001AD6F68
:100748000001B26F280E00010001AE6F0001B25126
:10075800CBC0AFF0CCC0B0F0000108EC0FF0000146
:1007680020EE0AF00001CB51D9260001CC51DA2243
:10077800000EDF6E5ED0000120EE0EF00001CB51BE
:10078800D9260001CC51DA22DF50D8B401D001D0EB
:1007980050D0000120EE0EF00001CB51D926000107
:1007A800CC51DA22DF5000010001B36F000120EEC6
:1007B8000DF00001CB51D9260001CC51DA22DF50CF
:1007C80000010001B46F000120EE0BF00001CB51D5
:1007D800D9260001CC51DA22DF5000010001B56FA3
:1007E8000001B16F030E00010001AD6F0001B151AE
:1007F8000001B26F290E00010001AE6F0001B25175
:100808000001000E00010001B06F0001B30E0001ED
:10081800AF6F000108EC0FF0000120EE0EF00001B0
:10082800CB51D9260001CC51DA22000EDF6E01D05F
:1008380000D000010001B951D8B401D001D020D0B6
:100848000001B16F000E00010001AD6F0001B15150
:100858000001B26F2A0E00010001AE6F0001B25113
:10086800CBC0AFF0CCC0B0F0000108EC0FF0000135
:10087800B16F000E00010001B96F0001B15100D045
:100888001200FC0ED36E9B8C0101010E01010101C7
:10089800A36F0101D70E0101A26F010155EC0FF002
:1008A8000101010E01010101A36F0101E00E010127
:1008B800A26F0101B3EC0CF00101010E010101016D
:1008C800A36F0101DC0E0101A26F010180EC0FF0A2
:1008D8007AEC0CF0000E936E000E8A6E0101C66F62
:1008E800F50E00010001CA6F0101C651000137EC85
:1008F8000EF0A9EC0FF09F909F9A9F860101C66F9A
:100908009E0E00010001CA6F0101C651000131ECC1
:100918000FF09D860101C66F6C0E01010101A26FE7
:100928000101C651000E01010101A46F190E010158
:10093800A36F01015EEC0AF000D0C2EC08F00101DF
:10094800C66F0A0E01010101BA6F0101C65101010A
:10095800010E01010101BC6F0101DE0E0101BB6F37
:100968000101010E01010101BE6F0101C70E010164
:10097800BD6F0101AAEC0EF001010101DF6F010159
:100988000101DFAF01D001D08AD09AD099D098D098
:1009980086D00101010E01010101A36F0101D40EEE
:1009A8000101A26F01010101DEC1A4F101010101F0
:1009B800A56B01010101DF5101010101A66F0101D0
:1009C800A76B0101A6BFA7070101010E01010101E3
:1009D800A96F0101C70E0101A86F0101A4EC0FF076
:1009E8006FD0C7C1D6F16CD03CD00101C66F020EE2
:1009F80001010101DF6F0101C6510101C66F550EEA
:100A080001010101C76F0101C6510101C66FAA0E9C
:100A180001010101C86F0101C65130D00101C66F43
:100A2800010E01010101DF6F0101C6510101C66F0D
:100A38003A0E01010101C76F0101C6511FD0010122
:100A4800C66F010E01010101DF6F0101C6510101ED
:100A5800C66FA30E01010101C76F0101C6510ED077
:100A68000DD001010101D651A80AD8B4D7D7010A7F
:100A7800D8B4E5D7030AD8B4B8D700D0DFC1A2F1FB
:100A88000101010E01010101A46F0101C70E01015D
:100A9800A36F010133EC07F013D012D011D001017C
:100AA8000101DE510A0AD8B474D7220AD8B499D7FA
:100AB800010AD8B496D7030AD8B4D3D701D000D046
:100AC8000101C66F0A0E01010101BA6F0101C65189
:100AD8000101010E01010101BC6F0101DE0E0101DE
:100AE800BB6F0101010E01010101BE6F0101C70EBB
:100AF8000101BD6F0101C2EC0EF001010101DF6FC0
:100B080001010101DFAF01D001D057D016D715D7A9
:100B180014D753D00101010E01010101BC6F01017D
:100B2800DC0E0101BB6F01010101DEC1BDF1010154
:100B38000101BE6B01010101DF5101010101BF6F1C
:100B48000101C06B0101BFBFC0070101010E010116
:100B58000101C26F0101C70E0101C16F0101F4EC6F
:100B68000BF0EBD600D00101010E01010101A36FCA
:100B78000101D20E0101A26F01010101DEC1A4F140
:100B880001010101A56B01010101DF510101010111
:100B9800A66F0101A76B0101A6BFA7070101010EFE
:100BA80001010101A96F0101C70E0101A86F01012F
:100BB800ECEC0DF0C2D6C1D6C0D601010101DE5160
:100BC8000B0AD8B4A7D7150AD8B4CDD7010AD8B418
:100BD800CAD7B3D6B2D6B1D6B0D661EF00F001010C
:100BE80020EE35F00101AC51D9260101AD51DA22D0
:100BF800DF5001010101B56F01010101B5510D0D72
:100C0800F35001010101AC2501010101B86FF45055
:100C180001010101AD210101B96F010EB8C1D9FF70
:100C2800B9C1DAFFDF6201D001D075D0010120EE31
:100C380001F00101B851D9260101B951DA22DF507A
:100C480001010101AE6101D001D003D0FD0E66D0D3
:100C580065D0010120EE01F00101B851D92601014A
:100C6800B951DA22DF500101B36F0101B35101011B
:100C78000101B66F0101B76BB1C1A2F1B2C1A3F115
:100C8800030E01010101B8250101B36F000E010136
:100C98000101B9210101B46FB3C1A4F1B4C1A5F137
:100CA800B6C1A6F1B7C1A7F101016EEC0DF00101C3
:100CB80020EE35F00101AC51D9260101AD51DA22FF
:100CC800010110EE35F00101AC51E1260101AD51F1
:100CD800E222E7500101B36F0101B329030BDF6E74
:100CE800010120EE02F00101B851D9260101B951E4
:100CF800DA22AFC1E1FFB0C1E2FFDFCFE7FFB8C141
:100D0800D9FFB9C1DAFF000EDF6E01010101B6514A
:100D180005D004D003D0FC0E01D000D01200000191
:100D280020EE35F00001A151D9260001A251DA22A6
:100D3800DF5000010001AA6F00010001AA510D0D4A
:100D4800F35000010001A12500010001AD6FF4502E
:100D580000010001A2210001AE6F010EADC0D9FF54
:100D6800AEC0DAFFDF6201D001D075D0000120EEFD
:100D780001F00001AD51D9260001AE51DA22DF5051
:100D880000010001A36101D001D003D0FD0E66D09F
:100D980065D0000120EE01F00001AD51D926000117
:100DA800AE51DA22DF500001A86F0001A8510001FE
:100DB8000001AB6F0001AC6BA6C097F0A7C098F01C
:100DC800030E00010001AD250001A86F000E00010F
:100DD8000001AE210001A96FA8C099F0A9C09AF03E
:100DE800ABC09BF0ACC09CF0000199EC0DF0000189
:100DF80020EE35F00001A151D9260001A251DA22D6
:100E0800000110EE35F00001A151E1260001A251C8
:100E1800E222E7500001A86F0001A829030BDF6E4A
:100E2800000120EE02F00001AD51D9260001AE51BB
:100E3800DA22A4C0E1FFA5C0E2FFDFCFE7FFADC023
:100E4800D9FFAEC0DAFF000EDF6E00010001AB5122
:100E580005D004D003D0FC0E01D000D01200000150
:100E680020EE19F00001CB51D9260001CC51DA222D
:100E7800000EDF6E43D0000120EE19F00001CB51C7
:100E8800D9260001CC51DA22DF500101A56F0101FA
:100E9800A551010DF35001010101A325D96EF450AC
:100EA80001010101A421DA6E000110EE19F0000120
:100EB800CB51E1260001CC51E222E7500101A66F97
:100EC8000101A651010D0F0EF326000EF422F35076
:100ED80000010001CB25E16EF45000010001CC2196
:100EE800E26EDFCFE7FF000120EE19F00001CB51E1
:100EF800D9260001CC51DA22DF2A00D0000120EEE9
:100F080019F00001CB51D9260001CC51DA22DF506B
:100F18000101A56F01010101A2510101A55DD8A040
:100F280001D001D0A8D700D0000120EE19F00001AF
:100F3800CB51D9260001CC51DA220101A2C1DFFF31
:100F4800000120EE1AF00001CB51D9260001CC5146
:100F5800DA22010EDF6E000120EE0FF00001CB5106
:100F6800D9260001CC51DA22DF50C96EC68812009A
:100F780001010101AEC1B2F101010101B36B01012F
:100F880020EE34F00101AC51D9260101AD51DA222D
:100F9800DF5001010101B46F01010101B4510D0DD0
:100FA800F35001010101AC2501010101B56FF450B5
:100FB80001010101AD210101B66FB5C1D9FFB6C16B
:100FC800DAFFDF50D8B401D001D003D0FF0E52D0E1
:100FD80051D0010120EE01F00101B551D9260101DE
:100FE800B651DA220101AEC1DFFF010120EE02F0A5
:100FF8000101B551D9260101B651DA220101AFC16B
:10100800DFFF030E01010101B52501010101A26FF6
:10101800000E01010101B6210101A36FB0C1A4F1C5
:10102800B1C1A5F1B2C1A6F1B3C1A7F101016EEC3E
:101038000DF0010120EE34F00101AC51D926010177
:10104800AD51DA22010110EE34F00101AC51E12674
:101058000101AD51E222E7500001CA6F0001CA291F
:10106800030BDF6EB5C1D9FFB6C1DAFF010EDF6E23
:10107800010E00D0120000010001A3C0A8F0000179
:101088000001A96B000120EE34F00001A151D9261E
:101098000001A251DA22DF5000010001AA6F00010D
:1010A8000001AA510D0DF35000010001A125000116
:1010B8000001AB6FF45000010001A2210001AC6FE8
:1010C800ABC0D9FFACC0DAFFDF50D8B401D001D033
:1010D80003D0FF0E52D051D0000120EE01F00001E4
:1010E800AB51D9260001AC51DA220001A3C0DFFFC1
:1010F800000120EE02F00001AB51D9260001AC51ED
:10110800DA220001A4C0DFFF030E00010001AB25B5
:1011180000010001976F000E00010001AC210001E1
:10112800986FA5C099F0A6C09AF0A8C09BF0A9C076
:101138009CF0000199EC0DF0000120EE34F0000164
:10114800A151D9260001A251DA22000110EE34F093
:101158000001A151E1260001A251E222E75000015D
:10116800A76F0001A729030BDF6EABC0D9FFACC086
:10117800DAFF010EDF6E010E00D01200010142EC11
:101188000DF001010101A7510101A611D8A401D058
:1011980001D002D062D061D08A860101A86F010E09
:1011A80000010001606F0101A85100D00101010E8A
:1011B80001010101A36F01016C0E0101A26F010180
:1011C80056EC0EF00009D8B401D001D00BD00101C3
:1011D800A86F000E00010001606F0101A8518A96F6
:1011E8003CD03BD00001000E01010101A36F0001BA
:1011F800610E0101A26F010156EC0EF00009D8B48E
:1012080001D001D00BD00101A86F000E0001000130
:10121800606F0101A8518A9620D01FD00101A86FE4
:101228000A0E00010001CA6F0101A85100016CEC0F
:101238000FF08AA601D002D0010E01D0000E0101E4
:10124800A86F0101A847A847A8478A500101A81913
:10125800F70BA8198A6EAAD7A9D71200000120EEA9
:101268000BF00001CB51D9260001CC51DA22010E36
:10127800DF6E000120EE0AF00001CB51D9260001F3
:10128800CC51DA22000EDF6E000100019751D8B46C
:1012980001D001D043D0C7AA01D001D021D000018C
:1012A80020EE0CF00001CB51D9260001CC51DA22F6
:1012B800050EDF6E000120EE0EF00001CB51D9269D
:1012C8000001CC51DA22DF2A000120EE0DF00001E6
:1012D800CB51D9260001CC51DA22050EDF6E2AD077
:1012E800C7A401D001D00CD0000120EE0CF0000101
:1012F800CB51D9260001CC51DA22080EDF6E1AD064
:10130800000120EE0CF00001CB51D9260001CC5190
:10131800DA22070EDF6E0ED00DD00CD0000120EEC1
:101328000CF00001CB51D9260001CC51DA22060E6F
:10133800DF6E00D012008AA001D002D0010E01D0C9
:10134800000E0001B46F8A500001B419FE0BB419E5
:101358008A6E000E00010001986F000E0001976F61
:1013680000019BEC0FF00001B46F020E00010001B8
:10137800AF6F0001B4510001000E00010001B16F10
:101388000001B80E0001B06F0001000E000100015D
:10139800B36F0001BA0E0001B26F0001DAEC0EF073
:1013A80000010001B66F0001B76B0001B6BFB707B7
:1013B80000010001B651020AB711D8A401D001D02A
:1013C8001DD00001B46F020E00010001AD6F0001D5
:1013D800B4510001B56F0A0E00010001AE6F0001A3
:1013E800B5510001000E00010001B06F0001BA0EF6
:1013F8000001AF6F000108EC0FF000D012009EAAA8
:1014080001D001D041D020EE04F03450D926355017
:10141800DA22DF501B6E1B50010DF3503424D96EB5
:10142800F4503520DA6E72EC0EF0DF6E20EE04F028
:101438003450D9263550DA22DF2A20EE04F0345011
:10144800D9263550DA22040EDF6201D001D01CD033
:1014580020EE04F03450D9263550DA22DF50176ECA
:101468001B6E1F0E186E1B5034C019F035C01AF0D1
:1014780043EC0FF020EE04F03450D9263550DA2230
:10148800000EDF6E01D000D033A601D001D011D0FC
:10149800AB98AB881B6E000E176E1B501C6E1E0E91
:1014A800186E1C50000E1A6E000E196E43EC0FF0E9
:1014B80000D01200000EAC6E000EAB6E01010101EF
:1014C800A2A101D001D001D0AC8801010101A2A3E1
:1014D80001D001D002D0AC8CAB8C01010101A2A5D6
:1014E80001D001D001D0AC8E01010101A2A701D029
:1014F80001D002D0AB8801D0AB8A01010101A2A9B9
:1015080001D001D001D0AC849E9801010101A2ABA9
:1015180001D001D001D0AB8601010101A2AD01D0FB
:1015280001D002D09D8A01D09D9A9E9A01010101A5
:10153800A2AF01D001D002D09D8801D09D98A3C14F
:10154800AFFF01010101A451B06EAC8AAB8E949C2F
:10155800948EACA801D001D006D0ACBE01D001D089
:1015680002D0948C00D012000DC012F0136A20EE45
:1015780034F00B50D9260C50DA22DF50146E145078
:101588000D0DF3500B24156EF4500C20166E15C07B
:10159800D9FF16C0DAFFDF50D8B401D001D003D08C
:1015A800FF0E3AD039D020EE01F01550D92616504A
:1015B800DA220DC0DFFF20EE02F01550D9261650B2
:1015C800DA220EC0DFFF030E1524016E000E16206E
:1015D800026E0FC003F010C004F012C005F013C073
:1015E80006F013EC0EF020EE34F00B50D9260C5018
:1015F800DA2210EE34F00B50E1260C50E222E750CC
:10160800116E1128030BDF6E15C0D9FF16C0DAFF63
:10161800010EDF6E010E00D0120001010101A5517B
:10162800A411D8B401D001D043D00001CA6F010E73
:1016380001010101A66F0001CA510AD0010101018F
:101648000101D890A437A53701010101A62B00D0CC
:1016580001010101A5AF01D001D0F0D701D000D020
:1016680001010101A45101010101A25D0101010172
:10167800A55101010101A359D8A001D001D00DD075
:1016880001010101A45101010101A25F0101010150
:10169800A55101010101A35B00D001010101010174
:1016A800D890A533A43301010101A62FD9D700D0C2
:1016B800A2C1A2F1A3C1A3F1120000010001606759
:1016C80001D001D002D045D044D0000113EC0DF078
:1016D800000100019A5100019911D8B401D001D03C
:1016E80002D037D036D0000176EC0FF000010001AF
:1016F800985100019711D8A401D001D002D029D067
:1017080028D00101010E00010001986F01016C0E43
:101718000001976F00018EEC0EF00009D8B401D0DB
:1017280001D002D016D015D00001000E0001000132
:10173800986F0001610E0001976F00018EEC0EF0AA
:101748000009D8B401D001D002D003D002D0ADEC4A
:101758000FF012000600EACFBFF0E1CFC0F0E2CFF1
:10176800C1F0D9CFC2F0DACFC3F0F3CFC4F0F4CFD1
:10177800C5F0F6CFC6F0F7CFC7F0F8CFC8F0F5CF71
:10178800C9F09EA601D001D004D09E9663EC00F06B
:1017980000D0F2A401D001D004D0F2949FEC09F05B
:1017A80000D061EC0BF0C9C0F5FFC8C0F8FFC7C096
:1017B800F7FFC6C0F6FFC5C0F4FFC4C0F3FFC3C03F
:1017C800DAFFC2C0D9FFC1C0E2FFC0C0E1FFBFC09D
:1017D800EAFFBEC0E9FFBDC0FBFFBCC0FAFF1100B5
:1017E800BBC1D9FFBCC1DAFFDE2A000EDD22BBC1B6
:1017F800D9FFBCC1DAFF0101DECFA2F10101DDCFC3
:10180800A3F1000E01010101A56F0A0E0101A46FE9
:10181800010111EC0BF001010101A251090A0101BA
:10182800A311D8A401D001D01DD00101C36F020EAD
:1018380001010101B76F0101C3510101C46F140E09
:1018480001010101B86F0101C451BBC1B9F1BCC1AB
:10185800BAF10101F2EC0EF001010101C56F02D0ED
:1018680001D000D01200010120EE34F00101A25194
:10187800D9260101A351DA22000EDF6E010120EE04
:1018880035F00101A251D9260101A351DA22000E37
:10189800DF6E0001CA6F000E01010101A46F000193
:1018A800CA51030E01010101A46501D001D002D083
:1018B8001CD01BD001010101A4510D0DF3500101F1
:1018C8000101A225D96EF45001010101A321DA6EAC
:1018D800000EDF6E01010101A42B030E01010101BD
:1018E800A46501D001D0E6D700D012000101A56F90
:1018F800000E00010001606F0101A5510001000EFA
:1019080001010101A36F0001610E0101A26F010134
:1019180037EC0CF00101010E01010101A36F010177
:101928006C0E0101A26F010137EC0CF00101010EF0
:1019380001010101A36F0101360E0101A26F01012E
:1019480037EC0CF00101010E01010101A36F010147
:10195800000E0101A26F010137EC0CF01200A2C1C8
:10196800CBF0A3C1CCF0000120EE0AF00001CB516E
:10197800D9260001CC51DA22000EDF6E000120EEDC
:101988000BF00001CB51D9260001CC51DA22000E10
:10199800DF6E000120EE0CF00001CB51D9260001CA
:1019A800CC51DA22050EDF6E000120EE0EF00001A8
:1019B800CB51D9260001CC51DA22000EDF6E12007D
:1019C800F2AC01D001D00AD0000E01010101A56FCF
:1019D800000E0101A46F22D021D020D0010162ECB9
:1019E8000FF001010101A3510101A211D8B401D0E6
:1019F80001D00AD0000E01010101A56F000E0101FE
:101A0800A46F0CD00BD00AD0000E01010101A56F04
:101A1800010E0101A46F02D001D000D01200F2AC77
:101A280001D001D00AD0000E000100019A6F000E0B
:101A38000001996F22D021D020D0000176EC0FF060
:101A480000010001985100019711D8B401D001D0CC
:101A58000AD0000E000100019A6F000E0001996F74
:101A68000CD00BD00AD0000E000100019A6F010EB5
:101A78000001996F02D001D000D012000101E4ECFE
:101A88000CF001010101A5510101A411D8A401D054
:101A980001D016D0010162EC0FF001010101A35140
:101AA8000101A211D8A401D001D00AD0000E010171
:101AB8000101A76F010E0101A66F0BD00AD009D052
:101AC800000E01010101A76F000E0101A66F01D0F0
:101AD80000D01200A4C1AAF1A5C1ABF1A2C1A8F11E
:101AE800A3C1A9F113D0AAC1D9FFABC1DAFFA8C11C
:101AF800E1FFA9C1E2FFDFCFE7FF01010101AA4B26
:101B0800AB2B01010101A84BA92B00D00101010158
:101B1800A607D8A0A7070101A629D8B4A729D8A441
:101B280001D001D0E0D700D0120099C09FF09AC030
:101B3800A0F097C09DF098C09EF013D09FC0D9FF29
:101B4800A0C0DAFF9DC0E1FF9EC0E2FFDFCFE7FF44
:101B5800000100019F4BA02B000100019D4B9E2B13
:101B680000D0000100019B07D8A09C0700019B2919
:101B7800D8B49C29D8A401D001D0E0D700D0120055
:101B88008AA201D002D0010E01D0000E1B6E1B46A6
:101B98008A501B18FD0B1B188A6E89EC0FF001C0C8
:101BA8001DF002C01EF01B6E000E176E1B501C6E3F
:101BB8000B0E186E1C50000E1A6E000E196E43ECB8
:101BC8000FF0000E026E000E016E92EC0FF0120084
:101BD80001010101A4511E0AA511D8A401D001D008
:101BE80002D01CD01BD001010101A4511F0AA5116C
:101BF800D8A401D001D012D001010101A6510101E0
:101C08000101A825D96E01010101A75101010101B6
:101C1800A921DA6E000EDF6E01D000D0120003C0D9
:101C280009F004C00AF001C007F002C008F00FD0A4
:101C380009C0D9FF0AC0DAFF07C0E1FF08C0E2FF08
:101C4800DFCFE7FF094A0A2A074A082A00D0050613
:101C5800D8A006060528D8B40628D8A401D001D0F3
:101C6800E7D700D0120000010001CA517E0BCD6EEB
:101C780000010001CAAD01D001D002D0CD8E02D042
:101C8800CD9E00D0000ECF6E000ECE6E9E9000014D
:101C98000001CAAF01D001D002D09D8001D09D9033
:101CA800CD801200010120EE35F00101A251D926A4
:101CB8000101A351DA22DF500001CA6F0001CA51A5
:101CC8000D0DF35001010101A225D96EF450010157
:101CD8000101A321DA6EDF5000D01200F20E331694
:101CE800ABAC01D001D007D03390ABA001D001D06C
:101CF80002D0338000D0ABA401D001D001D033840E
:101D0800ABA201D001D001D03386AECF01F0015093
:101D180000D01200000120EE35F000019751D926BD
:101D280000019851DA22DF500001996F00019951A2
:101D38000D0DF350000100019725D96EF4500001F4
:101D480000019821DA6EDF5000D012000101010E67
:101D580001010101AD6F01016C0E0101AC6FBAC147
:101D6800AEF1BBC1AFF1BCC1B0F1BDC1B1F1BEC1F3
:101D7800B2F10101F3EC05F000D012000001000EF1
:101D880001010101AD6F0001610E0101AC6FBAC123
:101D9800AEF1BBC1AFF1BCC1B0F1BDC1B1F1BEC1C3
:101DA800B2F10101F3EC05F000D012000101010EBF
:101DB80000010001A26F0101000E0001A16FAFC078
:101DC800A3F0B0C0A4F0B1C0A5F0B2C0A6F0B3C0F3
:101DD800A7F0000193EC06F000D012000101010EFB
:101DE80001010101AD6F0101000E0101AC6FB7C126
:101DF800AEF1B8C1AFF1B9C1B0F1BAC1B1F10101E9
:101E0800BCEC07F000D012000101010E0001000136
:101E1800A26F01016C0E0001A16FADC0A3F0AEC0AE
:101E2800A4F0AFC0A5F0B0C0A6F000013FEC08F0E8
:101E380000D0120001EE00F0A20EEE6AE806FDE105
:101E480000EE60F0370EEE6AE806FDE1336A326AAA
:101E5800316A306A000145EF04F094869488CAC05C
:101E6800C8FF000EC76E000EC66E000EC56E0E0EC1
:101E7800C612C78E94869488C580C68A120000014F
:101E8800000E0C6E0001610E0B6E17C00DF018C02D
:101E98000EF019C00FF01AC010F0B8EC0AF000D01C
:101EA8001200A2C134F0A3C135F020EE04F0345082
:101EB800D9263550DA22000EDF6E1200000EF2AE7F
:101EC800010E01010101A26F0101A36B00D01200F4
:101ED800FA0E00F0E82EFDD700010001CA2FF8D74E
:101EE80000D01200000EF2AE010E00010001976F43
:101EF8000001986B00D01200A2C1D9FFA3C1DAFF7C
:101F0800000EDE6E000EDD6E1200CECF03F0CFCFD6
:101F180004F003C001F004C002F0120001C003F095
:101F280002C004F004C0CFFF03C0CEFF120097C068
:101F380099F098C09AF09AC0D7FF99C0D6FF1200BE
:101F4800A8C1AAF1A9C1ABF11200D08EF28EF28C11
:081F58001200D38E03001200F9
:020000040020DA
:08000000FFFFFFFFFFFFFFFF00
:020000040030CA
:0E000000FF08191EFF8080FF0FC00FE00F40A9
:00000001FF
