:0400000061EF00F0BC
:10000800FACFC3F0FBCFC4F0E9CFC5F0E1EF0AF0B7
:10001800D8CF1FF0E8CF20F0E0CF21F0FACF22F0C0
:10002800FBCF23F0E9CF24F0EACF25F0E1CF26F08B
:10003800E2CF27F0D9CF28F0DACF29F0F3CF2AF092
:10004800F4CF2BF0F6CF2CF0F7CF2DF0F8CF2EF021
:10005800F5CF2FF09EA001D001D004D09E90D5EC12
:100068000CF000D09EAA01D001D004D09E9AD2EC08
:1000780008F000D02FC0F5FF2EC0F8FF2DC0F7FF05
:100088002CC0F6FF2BC0F4FF2AC0F3FF29C0DAFF0B
:1000980028C0D9FF27C0E2FF26C0E1FF25C0EAFF3C
:1000A80024C0E9FF23C0FBFF22C0FAFF21C0E0FF04
:1000B80020C0E8FF1FC0D8FF10002BEF0EF0000192
:1000C800B66F000E00010001C06F0001B6510001BB
:1000D800B66F000E00010001BB6F0001B6510001B0
:1000E800B66F000E00010001BF6F0001B65100019C
:1000F800B66F000E00010001BE6F0001B65100018D
:10010800B66F000E00010001BC6F0001B651C6AC0D
:1001180001D001D02AD0C69C000120EE0CF00001CD
:10012800E351D9260001E451DA22050EDF6E000101
:10013800B66F010E00010001BC6F0001B65100014D
:1001480020EE0EF00001E351D9260001E451DA2235
:10015800DF2A000120EE0DF00001E351D92600014D
:10016800E451DA22040EDF6E00D0C7A001D001D01E
:100178000BD0C9CFBDF00001B66F010E0001000120
:10018800C06F0001B65100D000010001BC6701D06A
:1001980001D050D238D237D2C7A601D001D04AD226
:1001A800C0C030F0FDEC07F0000120EE0CF00001BB
:1001B800E351D9260001E451DA22080EDF6201D0AA
:1001C80001D038D20001B66F000E00010001C06FE7
:1001D8000001B6510001B66F010E00010001BE6FAB
:1001E8000001B65127D226D225D2C7A801D001D006
:1001F80040D0000120EE0BF00001E351D9260001A8
:10020800E451DA22DF2A00010001C051D8B401D03C
:1002180001D023D0C7BA01D001D009D00001B66FF0
:10022800010E00010001BF6F0001B65116D0000198
:1002380020EE0EF00001E351D9260001E451DA2244
:10024800DF2A000120EE0DF00001E351D92600015C
:10025800E451DA22060EDF6E00D0000120EE0CF029
:100268000001E351D9260001E451DA22050EDF6EC0
:10027800E1D100010001C051D8B401D001D0DAD1D8
:10028800000120EE0BF00001E351D9260001E451F2
:10029800DA22DF2AC7BA01D001D02DD0C7B401D0E5
:1002A80001D00CD0000120EE0CF00001E351D9265A
:1002B8000001E451DA22070EDF6EBCD1000120EE06
:1002C8000CF00001E351D9260001E451DA22080EAE
:1002D800DF6E0001B66F010E00010001BE6F000164
:1002E800B6510001B66F000E00010001C06F000199
:1002F800B651A0D19FD1000120EE0EF00001E351CC
:10030800D9260001E451DA22DF2A000120EE0CF0A0
:100318000001E351D9260001E451DA22050EDF6E0F
:10032800000120EE0DF00001E351D9260001E4514F
:10033800DA22060EDF6E7ED17DD17CD17BD1000121
:1003480020EE1AF00001E351D9260001E451DA2227
:10035800DF500001B66F000120EE19F00001E351F3
:10036800D9260001E451DA22DF500001B65DD8B089
:1003780001D001D032D0000120EE1AF00001E35183
:10038800D9260001E451DA22DF500001B66F0001DE
:10039800B651010D0F0EF326000EF422F3500001A2
:1003A8000001E325D96EF45000010001E421DA6E62
:1003B800DF50C96E000120EE1AF00001E351D92682
:1003C8000001E451DA22DF2A0001B66F010E0001B4
:1003D8000001BB6F0001B6512DD1000120EE0CF0D9
:1003E8000001E351D9260001E451DA22050EDF6E3F
:1003F80021D120D1C7A801D001D07BD0000120EEA7
:100408000BF00001E351D9260001E451DA22DF2A7A
:1004180000010001C051D8B401D001D055D0C7AAFD
:1004280001D001D02FD0000120EE0AF00001E351E5
:10043800D9260001E451DA22DF500001B66F00012D
:10044800B651010DF35000010001E325D96EF450B7
:1004580000010001E421DA6E0001BDC0DFFF0001E8
:1004680020EE0AF00001E351D9260001E451DA2216
:10047800DF2A0001B66F010E00010001BF6F000105
:10048800B6512BD0000120EE0EF00001E351D92621
:100498000001E451DA22DF2A000120EE0DF000010C
:1004A800E351D9260001E451DA22060EDF6E00017D
:1004B80020EE0CF00001E351D9260001E451DA22C4
:1004C800050EDF6E0AD009D00001B66F010E0001DB
:1004D8000001BF6F0001B65100D0000120EE0CF002
:1004E8000001E351D9260001E451DA22050EDF6E3E
:1004F800A1D000010001C051D8B401D001D09AD0D8
:10050800000120EE0BF00001E351D9260001E4516F
:10051800DA22DF2AC7AA01D001D027D0000120EEB5
:100528000AF00001E351D9260001E451DA22DF5034
:100538000001B66F0001B651010DF3500001000132
:10054800E325D96EF45000010001E421DA6E0001C0
:10055800BDC0DFFF000120EE0AF00001E351D926FB
:100568000001E451DA22DF2A65D0C7A401D001D006
:1005780024D0000120EE0CF00001E351D92600013F
:10058800E451DA22080EDF6E0001B66F010E000199
:100598000001BF6F0001B6510001B66F010E0001E6
:1005A8000001BE6F0001B6510001B66F000E0001D8
:1005B8000001C06F0001B6513DD0000120EE0EF0E1
:1005C8000001E351D9260001E451DA22DF2A0001B3
:1005D80020EE0DF00001E351D9260001E451DA22A2
:1005E800060EDF6E000120EE0CF00001E351D92663
:1005F8000001E451DA22050EDF6E1CD01BD01AD0A0
:1006080019D018D017D0000120EE0CF00001E351EA
:10061800D9260001E451DA22DF50050AD8B4BCD546
:10062800030AD8B4E2D5010AD8B4E4D60F0AD8B47C
:1006380086D600D000010001C06701D001D007D0E4
:1006480000010001BB51D8B401D001D007D0C6B811
:1006580001D001D003D0C68801D000D0000120EE1F
:100668000AF00001E351D9260001E451DA22080E0C
:10067800DF6401D001D027D000010001BF6701D09D
:1006880001D021D0000120EE0CF00001E351D92661
:100698000001E451DA22050EDF6E000120EE0EF0B3
:1006A8000001E351D9260001E451DA22DF2A0001D2
:1006B80020EE0DF00001E351D9260001E451DA22C1
:1006C800070EDF6E00D000010001BF51D8B401D081
:1006D80001D04BD0000120EE0BF00001E351D926E8
:1006E8000001E451DA22000110EE0AF00001E351A2
:1006F800E1260001E451E222E7500001B66F000153
:10070800B651010DF35000010001E325E16EF450EC
:1007180000010001E421E26EDFCFE7FF000120EED7
:100728000AF00001E351D9260001E451DA22DF5032
:100738000001B66F0001B629466E0001B76F280E9A
:10074800476E0001B751E3C048F0E4C049F08AECB5
:100758000EF0000120EE0AF00001E351D926000155
:10076800E451DA22000EDF6E56D0000120EE0EF0C2
:100778000001E351D9260001E451DA22DF50D8B450
:1007880001D001D048D0000120EE0EF00001E35165
:10079800D9260001E451DA22DF5000010001B86FC8
:1007A800000120EE0DF00001E351D9260001E451CB
:1007B800DA22DF5000010001B96F000120EE0BF0D2
:1007C8000001E351D9260001E451DA22DF5000018B
:1007D8000001BA6F0001B66F030E466E0001B651F4
:1007E8000001B76F290E476E0001B7510001000ED6
:1007F800496E0001B80E486E8AEC0EF0000120EE3A
:100808000EF00001E351D9260001E451DA22000E6E
:10081800DF6E01D000D000010001BE51D8B401D074
:1008280001D01BD00001B66F000E466E0001B65114
:100838000001B76F2A0E476E0001B751E3C048F0B8
:10084800E4C049F08AEC0EF00001B66F000E00011A
:100858000001BE6F0001B65100D01200820ED36EA7
:100868009B9C0101010E00010001D26F0101C60E1F
:100878000001D16F00019CEC0EF00101010E000196
:100888000001D26F0101CF0E0001D16F00011EECF3
:100898000CF00101010E00010001D26F0101CB0E25
:1008A8000001D16F0001BDEC0EF0E7EC0BF0000E7B
:1008B800936E000E8A6E0101B56FF50E00010001FE
:1008C800D16F0101B55100018EEC0DF0EDEC0EF089
:1008D8009F909F9A9F860101B56F9E0E00010001AF
:1008E800D16F0101B551000166EC0EF09D86010142
:1008F800B56F6C0E00010001D16F0101B551000EFA
:1009080000010001D36F190E0001D26F00012DEC18
:1009180009F000D068EC08F00101B56F0A0E01017A
:100928000101A96F0101B5510101010E0101010188
:10093800AB6F0101CD0E0101AA6F0101010E01018A
:100948000101AD6F0101B60E0101AC6F0101E5ECCB
:100958000DF001010101CE6F01010101CEAF01D0FF
:1009680001D08AD09AD099D098D086D00101010EB2
:1009780000010001D26F0101C30E0001D16F010116
:100988000001CDC1D3F000010001D46B01010101C8
:10099800CE5100010001D56F0001D66B0001D5BF13
:1009A800D6070101010E00010001D86F0101B60E42
:1009B8000001D76F0001E8EC0EF06FD0B6C1C5F1A9
:1009C8006CD03CD00101B56F020E01010101CE6F60
:1009D8000101B5510101B56F550E01010101B66F55
:1009E8000101B5510101B56FAA0E01010101B76FEF
:1009F8000101B55130D00101B56F010E01010101AE
:100A0800CE6F0101B5510101B56F3A0E0101010127
:100A1800B66F0101B5511FD00101B56F010E01017B
:100A28000101CE6F0101B5510101B56FA30E01019E
:100A38000101B66F0101B5510ED00DD001010101C0
:100A4800C551A80AD8B4D7D7010AD8B4E5D7030A3C
:100A5800D8B4B8D700D0CEC1D1F00101010E000141
:100A68000001D36F0101B60E0001D26F000180ECC6
:100A780006F013D012D011D001010101CD510A0A9C
:100A8800D8B474D7220AD8B499D7010AD8B496D75B
:100A9800030AD8B4D3D701D000D00101B56F0A0E2C
:100AA80001010101A96F0101B5510101010E010107
:100AB8000101AB6F0101CD0E0101AA6F0101010E09
:100AC80001010101AD6F0101B60E0101AC6F010119
:100AD800FDEC0DF001010101CE6F01010101CEAF66
:100AE80001D001D057D016D715D714D753D001014C
:100AF800010E01010101AC6F0101CB0E0101AB6FC9
:100B080001010101CDC1ADF101010101AE6B01018E
:100B18000101CE5101010101AF6F0101B06B01016B
:100B2800AFBFB0070101010E01010101B26F010160
:100B3800B60E0101B16F010126EC0BF0EBD600D027
:100B48000101010E00010001D26F0101C10E000177
:100B5800D16F01010001CDC1D3F000010001D46BB8
:100B680001010101CE5100010001D56F0001D66BD2
:100B78000001D5BFD6070101010E00010001D86FA1
:100B88000101B60E0001D76F0001FDEC0CF0C2D6D2
:100B9800C1D6C0D601010101CD510B0AD8B4A7D7DF
:100BA800150AD8B4CDD7010AD8B4CAD7B3D6B2D6A5
:100BB800B1D6B0D661EF00F0000120EE35F00001AB
:100BC800DB51D9260001DC51DA22DF500101010195
:100BD800A46F01010101A4510D0DF35000010001A2
:100BE800DB2501010101A76FF45000010001DC21A0
:100BF8000101A86F010EA7C1D9FFA8C1DAFFDF6202
:100C080001D001D075D0010120EE01F00101A751FA
:100C1800D9260101A851DA22DF5000010001DD6167
:100C280001D001D003D0FD0E66D065D0010120EEC1
:100C380001F00101A751D9260101A851DA22DF509C
:100C48000101A26F0101A25101010101A56F01017A
:100C5800A66BE0C0D1F0E1C0D2F0030E01010101A2
:100C6800A7250101A26F000E01010101A8210101C0
:100C7800A36FA2C1D3F0A3C1D4F0A5C1D5F0A6C17A
:100C8800D6F00001AAEC0CF0000120EE35F00001CE
:100C9800DB51D9260001DC51DA22000110EE35F0D3
:100CA8000001DB51E1260001DC51E222E75001019D
:100CB800A26F0101A229030BDF6E010120EE02F0F1
:100CC8000101A751D9260101A851DA22DEC0E1FFAE
:100CD800DFC0E2FFDFCFE7FFA7C1D9FFA8C1DAFF76
:100CE800000EDF6E01010101A55105D004D003D02B
:100CF800FC0E01D000D01200000120EE19F0000116
:100D0800E351D9260001E451DA22000EDF6E43D008
:100D1800000120EE19F00001E351D9260001E45149
:100D2800DA22DF500001D46F0001D451010DF350D5
:100D380000010001D225D96EF45000010001D32131
:100D4800DA6E000110EE19F00001E351E12600010E
:100D5800E451E222E7500001D56F0001D551010DA1
:100D68000F0EF326000EF422F35000010001E325D4
:100D7800E16EF45000010001E421E26EDFCFE7FFED
:100D8800000120EE19F00001E351D9260001E451D9
:100D9800DA22DF2A00D0000120EE19F00001E35129
:100DA800D9260001E451DA22DF500001D46F000196
:100DB8000001D1510001D45DD8A001D001D0A8D73D
:100DC80000D0000120EE19F00001E351D9260001FE
:100DD800E451DA220001D1C0DFFF000120EE1AF051
:100DE8000001E351D9260001E451DA22010EDF6E39
:100DF800000120EE0FF00001E351D9260001E45173
:100E0800DA22DF50C96EC688120000010101DDC078
:100E1800A2F101010101A36B000120EE34F00001F1
:100E2800DB51D9260001DC51DA22DF500101010132
:100E3800A46F01010101A4510D0DF350000100013F
:100E4800DB2501010101A56FF45000010001DC213F
:100E58000101A66FA5C1D9FFA6C1DAFFDF50D8B43A
:100E680001D001D003D0FF0E52D051D0010120EEA5
:100E780001F00101A551D9260101A651DA2200018C
:100E8800DDC0DFFF010120EE02F00101A551D926E6
:100E98000101A651DA220001DEC0DFFF030E0101C5
:100EA8000101A52500010001D16F000E010101011A
:100EB800A6210001D26FDFC0D3F0E0C0D4F0A2C1F8
:100EC800D5F0A3C1D6F00001AAEC0CF0000120EE89
:100ED80034F00001DB51D9260001DC51DA2200018F
:100EE80010EE34F00001DB51E1260001DC51E22272
:100EF800E7500001E16F0001E129030BDF6EA5C196
:100F0800D9FFA6C1DAFF010EDF6E010E00D0120074
:100F180020EE35F03A50D9263B50DA22DF50436EA6
:100F280043500D0DF3503A24466EF4503B20476E63
:100F3800010E46C0D9FF47C0DAFFDF6201D001D0F9
:100F480054D020EE01F04650D9264750DA22DF501F
:100F58003C6001D001D003D0FD0E4AD049D020EE2C
:100F680001F04650D9264750DA22DF50416E4150F1
:100F7800446E456A3FC030F040C031F0030E46244D
:100F8800416E000E4720426E41C032F042C033F03D
:100F980044C034F045C035F048EC0DF020EE35F093
:100FA8003A50D9263B50DA2210EE35F03A50E12675
:100FB8003B50E222E750416E4128030BDF6E20EEE2
:100FC80002F04650D9264750DA223DC0E1FF3EC024
:100FD800E2FFDFCFE7FF46C0D9FF47C0DAFF000EC8
:100FE800DF6E445005D004D003D0FC0E01D000D0F1
:100FF8001200000120EE0BF00001E351D926000198
:10100800E451DA22010EDF6E000120EE0AF0000141
:10101800E351D9260001E451DA22000EDF6E305088
:10102800D8B401D001D043D0C7AA01D001D021D073
:10103800000120EE0CF00001E351D9260001E45133
:10104800DA22050EDF6E000120EE0EF00001E351FA
:10105800D9260001E451DA22DF2A000120EE0DF042
:101068000001E351D9260001E451DA22050EDF6EB2
:101078002AD0C7A401D001D00CD0000120EE0CF07A
:101088000001E351D9260001E451DA22080EDF6E8F
:101098001AD0000120EE0CF00001E351D92600011E
:1010A800E451DA22070EDF6E0ED00DD00CD000010D
:1010B80020EE0CF00001E351D9260001E451DA22B8
:1010C800060EDF6E00D0120000017EEC0CF000016D
:1010D8000001D6510001D511D8A401D001D002D009
:1010E8005CD05BD08A860001D76F010E4D6E00017F
:1010F800D75100D00101010E00010001D26F01019A
:101108006C0E0001D16F0001ADEC0DF00009D8B4F0
:1011180001D001D009D00001D76F000E4D6E00013B
:10112800D7518A963AD039D00001000E000100014B
:10113800D26F0001800E0001D16F0001ADEC0DF0FF
:101148000009D8B401D001D009D00001D76F000E32
:101158004D6E0001D7518A9620D01FD00001D76F5D
:101168000A0E00010001D16F0001D7510001B3EC54
:101178000EF08AA601D002D0010E01D0000E0001A7
:10118800D76F0001D747D747D7478A500001D719EB
:10119800F70BD7198A6EAED7ADD712009EAA01D029
:1011A80001D041D020EE04F04F50D9265050DA2219
:1011B800DF501B6E1B50010DF3504F24D96EF450B5
:1011C8005020DA6EC9EC0DF0DF6E20EE04F04F50BF
:1011D800D9265050DA22DF2A20EE04F04F50D926C3
:1011E8005050DA22040EDF6201D001D01CD020EE6C
:1011F80004F04F50D9265050DA22DF50176E1B6E7C
:101208001F0E186E1B504FC019F050C01AF078EC22
:101218000EF020EE04F04F50D9265050DA22000E7E
:10122800DF6E01D000D04EA601D001D011D0AB980E
:10123800AB881B6E000E176E1B501C6E1E0E186EB0
:101248001C50000E1A6E000E196E78EC0EF000D0CD
:101258001200000EAC6E000EAB6E00010001D1A1B1
:1012680001D001D001D0AC8800010001D1A301D088
:1012780001D002D0AC8CAB8C00010001D1A501D00B
:1012880001D001D0AC8E00010001D1A701D001D05E
:1012980002D0AB8801D0AB8A00010001D1A901D0EE
:1012A80001D001D0AC849E9800010001D1AB01D0DF
:1012B80001D001D0AB8600010001D1AD01D001D031
:1012C80002D09D8A01D09D9A9E9A00010001D1AF5B
:1012D80001D001D002D09D8801D09D98D2C0AFFF27
:1012E80000010001D351B06EAC8AAB8E949C948EF1
:1012F800ACA801D001D006D0ACBE01D001D002D03C
:10130800948C00D012000DC012F0136A20EE34F055
:101318000B50D9260C50DA22DF50146E14500D0DE4
:10132800F3500B24156EF4500C20166E15C0D9FF1F
:1013380016C0DAFFDF50D8B401D001D003D0FF0EB9
:101348003AD039D020EE01F01550D9261650DA22BD
:101358000DC0DFFF20EE02F01550D9261650DA2214
:101368000EC0DFFF030E1524016E000E1620026E5C
:101378000FC003F010C004F012C005F013C006F04F
:1013880024EC0DF020EE34F00B50D9260C50DA2264
:1013980010EE34F00B50E1260C50E222E750116EAB
:1013A8001128030BDF6E15C0D9FF16C0DAFF010E36
:1013B800DF6E010E00D012003CC041F0426A20EE00
:1013C80034F03A50D9263B50DA22DF50436E43506E
:1013D8000D0DF3503A24446EF4503B20456E44C042
:1013E800D9FF45C0DAFFDF50D8B401D001D003D00F
:1013F800FF0E3AD039D020EE01F04450D92645509E
:10140800DA223CC0DFFF20EE02F04450D9264550D6
:10141800DA223DC0DFFF030E4424306E000E452063
:10142800316E3EC032F03FC033F041C034F042C0AC
:1014380035F048EC0DF020EE34F03A50D9263B5008
:10144800DA2210EE34F03A50E1263B50E222E7501F
:10145800406E4028030BDF6E44C0D9FF45C0DAFF59
:10146800010EDF6E010E00D012008AA001D002D05A
:10147800010E01D0000E0001BB6F8A500001BB199C
:10148800FE0BBB198A6E000E316E000E306ED8EC62
:101498000EF00001BB6F020E00010001B66F0001E3
:1014A800BB510001000E00010001B86F0001BF0E22
:1014B8000001B76F0001000E00010001BA6F0001C2
:1014C800C10E0001B96F00013FEC0EF000010001F0
:1014D800BD6F0001BE6B0001BDBFBE07000100016A
:1014E800BD51020ABE11D8A401D001D015D0000107
:1014F800BB6F020E466E0001BB510001BC6F0A0EA5
:10150800476E0001BC510001000E496E0001C10E7A
:10151800486E8AEC0EF000D0120000010001D45190
:10152800D311D8B401D001D043D00001D56F010E3A
:1015380000010001D66F0001D5510AD00001000159
:101548000001D890D337D43700010001D62B00D042
:1015580000010001D4AF01D001D0F0D701D000D0F4
:1015680000010001D35100010001D15D000100011B
:10157800D45100010001D259D8A001D001D00DD01A
:1015880000010001D35100010001D15F00010001F9
:10159800D45100010001D25B00D00001000100011C
:1015A800D890D433D33300010001D62FD9D700D037
:1015B800D1C0D1F0D2C0D2F01200EACFC6F0E1CF4C
:1015C800C7F0E2CFC8F0D9CFC9F0DACFCAF0F3CF6D
:1015D800CBF0F4CFCCF0F6CFCDF0F7CFCEF0F8CFFC
:1015E800CFF0F5CFD0F09EA601D001D004D09E96C2
:1015F80063EC00F000D0F2A401D001D004D0F29442
:1016080039EC0AF000D0ACEC0BF0D0C0F5FFCFC03D
:10161800F8FFCEC0F7FFCDC0F6FFCCC0F4FFCBC0BB
:10162800F3FFCAC0DAFFC9C0D9FFC8C0E2FFC7C00C
:10163800E1FFC6C0EAFFC5C0E9FFC4C0FBFFC3C0E5
:10164800FAFF1100ABC1D9FFACC1DAFFDE2A000EE8
:10165800DD22ABC1D9FFACC1DAFF0001DECFD1F08A
:101668000001DDCFD2F0000E00010001D46F0A0E98
:101678000001D36F000191EC0AF000010001D15183
:10168800090A0001D211D8A401D001D01DD001014E
:10169800B36F020E01010101A76F0101B3510101EE
:1016A800B46F140E01010101A86F0101B451ABC15F
:1016B800A9F1ACC1AAF1010115EC0EF0000100017D
:1016C800E26F02D001D000D01200000120EE34F009
:1016D8000001D151D9260001D251DA22000EDF6E65
:1016E800000120EE35F00001D151D9260001D25178
:1016F800DA22000EDF6E0001D36F000E0001000138
:10170800D46F0001D351030E00010001D46501D04C
:1017180001D002D01CD01BD000010001D4510D0D06
:10172800F35000010001D125D96EF45000010001E9
:10173800D221DA6E000EDF6E00010001D42B030EF9
:1017480000010001D46501D001D0E6D700D0120015
:101758004D6601D001D002D035D034D06CEC0DF0FC
:1017680033503210D8B401D001D002D02BD02AD0B7
:10177800E1EC0EF031503010D8A401D001D002D0E5
:1017880021D020D00101010E316E01016C0E306EA6
:1017980053EC0EF00009D8B401D001D002D012D019
:1017A80011D00001000E316E0001800E306E53EC36
:1017B8000EF00009D8B401D001D002D003D002D075
:1017C800F1EC0EF012000001D56F000E4D6E000115
:1017D800D5510001000E00010001D26F0001800EFA
:1017E8000001D16F000169EC0BF00101010E00014D
:1017F8000001D26F01016C0E0001D16F000169EC8C
:101808000BF00101010E00010001D26F0101360E3B
:101818000001D16F000169EC0BF00101010E00011C
:101828000001D26F0101000E0001D16F000169ECC7
:101838000BF01200D1C0E3F0D2C0E4F0000120EEBA
:101848000AF00001E351D9260001E451DA22000E22
:10185800DF6E000120EE0BF00001E351D9260001F4
:10186800E451DA22000EDF6E000120EE0CF00001D8
:10187800E351D9260001E451DA22050EDF6E00019A
:1018880020EE0EF00001E351D9260001E451DA22DE
:10189800000EDF6E1200F2AC01D001D00AD0000EAB
:1018A80000010001D46F000E0001D36F22D021D0B7
:1018B80020D00001A9EC0EF000010001D251000176
:1018C800D111D8B401D001D00AD0000E0001000116
:1018D800D46F000E0001D36F0CD00BD00AD0000ECD
:1018E80000010001D46F010E0001D36F02D001D0B6
:1018F80000D0120000014FEC0CF000010001D4519F
:101908000001D311D8A401D001D016D00001A9EC50
:101918000EF000010001D2510001D111D8A401D06C
:1019280001D00AD0000E00010001D66F010E00019F
:10193800D56F0BD00AD009D0000E00010001D66F78
:10194800000E0001D56F01D000D01200D3C0D9F02D
:10195800D4C0DAF0D1C0D7F0D2C0D8F013D0D9C0F3
:10196800D9FFDAC0DAFFD7C0E1FFD8C0E2FFDFCF86
:10197800E7FF00010001D94BDA2B00010001D74B2A
:10198800D82B00D000010001D507D8A0D607000148
:10199800D529D8B4D629D8A401D001D0E0D700D011
:1019A80012008AA201D002D0010E01D0000E1B6ED7
:1019B8001B468A501B18FD0B1B188A6EC6EC0EF0CE
:1019C80001C01DF002C01EF01B6E000E176E1B50EA
:1019D8001C6E0B0E186E1C50000E1A6E000E196E3F
:1019E80078EC0EF0000E026E000E016ECFEC0EF0D9
:1019F800120000010001D3511E0AD411D8A401D04D
:101A080001D002D01CD01BD000010001D3511F0A05
:101A1800D411D8A401D001D012D000010001D551B1
:101A280000010001D725D96E00010001D65100013F
:101A38000001D821DA6E000EDF6E01D000D012004E
:101A480003C009F004C00AF001C007F002C008F0A2
:101A58000FD009C0D9FF0AC0DAFF07C0E1FF08C0EC
:101A6800E2FFDFCFE7FF094A0A2A074A082A00D01F
:101A78000506D8A006060528D8B40628D8A401D09B
:101A880001D0E7D700D0120032C038F033C039F0A7
:101A980030C036F031C037F00FD038C0D9FF39C068
:101AA800DAFF36C0E1FF37C0E2FFDFCFE7FF384A91
:101AB800392A364A372A00D03406D8A035063428C1
:101AC800D8B43528D8A401D001D0E7D700D0120067
:101AD800F2AC01D001D007D0000E336E000E326E8A
:101AE80018D017D016D0E1EC0EF031503010D8B421
:101AF80001D001D007D0000E336E000E326E09D02F
:101B080008D007D0000E336E010E326E02D001D01D
:101B180000D0120000010001D1517E0BCD6E0001F2
:101B28000001D1AD01D001D002D0CD8E02D0CD9E22
:101B380000D0000ECF6E000ECE6E9E900001000108
:101B4800D1AF01D001D002D09D8001D09D90CD8031
:101B58001200000120EE35F00001D151D926000114
:101B6800D251DA22DF500001D36F0001D3510D0D9D
:101B7800F35000010001D125D96EF4500001000195
:101B8800D221DA6EDF5000D01200F20E4E16ABAC46
:101B980001D001D007D04E90ABA001D001D002D027
:101BA8004E8000D0ABA401D001D001D04E84ABA2AE
:101BB80001D001D001D04E86AECF01F0015000D047
:101BC80012000101010E00010001DC6F01016C0E21
:101BD8000001DB6FA9C1DDF0AAC1DEF0ABC1DFF007
:101BE800ACC1E0F0ADC1E1F00001E0EC05F000D0DF
:101BF80012000001000E00010001DC6F0001800EE0
:101C08000001DB6FA9C1DDF0AAC1DEF0ABC1DFF0D6
:101C1800ACC1E0F0ADC1E1F00001E0EC05F000D0AE
:101C280012000101010E00010001DC6F0101000E2C
:101C38000001DB6FA7C1DDF0A8C1DEF0A9C1DFF0AC
:101C4800AAC1E0F0000109EC07F000D0120001EE93
:101C580000F0A20EEE6AE806FDE100EE80F0360E16
:101C6800EE6AE806FDE14E6A4D6A4C6A4B6A4A6ABA
:101C7800000132EF04F00101010E3B6E0101000E7C
:101C88003A6EB6C03CF0B7C03DF0B8C03EF0B9C03F
:101C98003FF0BAC040F08CEC07F000D0120020EE04
:101CA80035F03050D9263150DA22DF50326E3250BA
:101CB8000D0DF3503024D96EF4503120DA6EDF5018
:101CC80000D0120094869488D1C0C8FF000EC76E59
:101CD800000EC66E000EC56E0E0EC612C78E948616
:101CE8009488C580C68A12000001000E0C6E00019F
:101CF800800E0B6E17C00DF018C00EF019C00FF053
:101D08001AC010F087EC09F000D012000101010E92
:101D18003B6E01016C0E3A6E46C03CF047C03DF088
:101D280048C03EF049C03FF0E0EC09F000D0120096
:101D3800D1C04FF0D2C050F020EE04F04F50D92659
:101D48005050DA22000EDF6E1200000EF2AE010EC5
:101D580000010001D16F0001D26B00D01200FA0E11
:101D680000F0E82EFDD700010001D12FF8D700D0F0
:101D78001200D1C0D9FFD2C0DAFF000EDE6E000E0D
:101D8800DD6E1200CECF03F0CFCF04F003C001F018
:101D980004C002F0120001C003F002C004F004C045
:101DA800CFFF03C0CEFF120030C032F031C033F095
:101DB80033C0D7FF32C0D6FF1200000EF2AE010EBC
:101DC800306E316A00D01200D7C0D9F0D8C0DAF02E
:101DD8001200D08EF28EF28C1200D38E0300120005
:067FF80080F4C5FFFFF15B
:00000001FF
