:100000005FEF0BF012000000C9EF06F012001200C3
:1000180026EF07F01200D9CFE6FFE1CFD9FF82E93A
:1000280041E9E7CFD9FF1200D9CFE6FFE1CFD9FFE9
:1000380084E9000E00D041E9E7CFD9FF1200D9CFFB
:10004800E6FFE1CFD9FF82E9000E00D041E9E7CF12
:10005800D9FF1200D9CFE6FFE1CFD9FF84E94BC021
:10006800E9FF4CC0EAFF190EE926000EEA22EF6A02
:100078004BC0E9FF4CC0EAFF190EEB50D880025480
:1000880032E24BC0E9FF4CC0EAFF190EEB500024E6
:10009800E96E000E0120EA6EEF50E66E4BC0E9FFF4
:1000A8004CC0EAFF0F0EE926000EEA22E9CF45F020
:1000B800EACF46F04BC0E9FF4CC0EAFF190EEB50FF
:1000C8000001EA6A4525E96E4651EA22E552E75001
:1000D800EF6E4BC0E9FF4CC0EAFF190EE926000E8F
:1000E800EA22EF2AC5D74BC0E9FF4CC0EAFF190E38
:1000F800E926000EEA2202EBEFFF4BC0E9FF4CC0F5
:10010800EAFF1A0EE926000EEA22010EEF6E4BC036
:10011800E9FF4CC0EAFF0F0EEB50C96EC68841E9F3
:10012800E7CFD9FF1200D9CFE6FFE1CFD9FF82E9A7
:100138004BC0E9FF4CC0EAFF0B0EE926000EEA228D
:10014800010EEF6E4BC0E9FF4CC0EAFF0A0EE9262C
:10015800000EEA22EF6A005038E0C7AA1ED04BC052
:10016800E9FF4CC0EAFF0C0EE926000EEA22050E54
:10017800EF6E4BC0E9FF4CC0EAFF0E0EE926000EF9
:10018800EA22EF2A4BC0E9FF4CC0EAFF0D0EE92630
:10019800000EEA22050EEF6E17D0C7A40BD04BC095
:1001A800E9FF4CC0EAFF0C0EE926000EEA22080E11
:1001B800EF6E0AD04BC0E9FF4CC0EAFF0C0EE926EF
:1001C800000EEA22070EEF6E0AD04BC0E9FF4CC0C2
:1001D800EAFF0C0EE926000EEA22060EEF6E41E950
:1001E800E7CFD9FF1200D9CFE6FFE1CFD9FF81E9E8
:1001F80049E8026A036A046A056A066AC6AC20D03E
:10020800C69C4BC0E9FF4CC0EAFF0C0EE926000E65
:10021800EA22050EEF6E010E066E4BC0E9FF4CC0D8
:10022800EAFF0E0EE926000EEA22EF2A4BC0E9FF8C
:100238004CC0EAFF0D0EE926000EEA22040EEF6E0E
:10024800C7A004D0C950016E010E026E065001E02D
:1002580094D14BC0E9FF4CC0EAFF0C0EEB50070AE3
:1002680001E1D2D00F0A01E18DD00E0A15E0030A90
:1002780001E083D1C7A60FD002EBE6FF54DF41E9C6
:100288004BC0E9FF4CC0EAFF0C0EEB50080803E135
:10029800026A010E056E71D1C7A82ED04BC0E9FFC6
:1002A8004CC0EAFF0B0EE926000EEA22EF2A0250A4
:1002B80018E0C7BA03D0010E046E13D04BC0E9FF93
:1002C8004CC0EAFF0E0EE926000EEA22EF2A4BC0C8
:1002D800E9FF4CC0EAFF0D0EE926000EEA22060EE1
:1002E800EF6E4BC0E9FF4CC0EAFF0C0EE926000E8A
:1002F800EA22050EEF6E45D0025043E04BC0E9FFFD
:100308004CC0EAFF0B0EE926000EEA22EF2AC7BA14
:100318001BD0C7B40BD04BC0E9FF4CC0EAFF0C0E92
:10032800E926000EEA22070EEF6E0DD04BC0E9FF5A
:100338004CC0EAFF0C0EE926000EEA22080EEF6E0A
:10034800010E056E026A1DD04BC0E9FF4CC0EAFFE2
:100358000E0EE926000EEA22EF2A4BC0E9FF4CC038
:10036800EAFF0C0EE926000EEA22050EEF6E4BC0DE
:10037800E9FF4CC0EAFF0D0EE926000EEA22060E40
:10038800EF6EFBD04BC0E9FF4CC0EAFF1A0EEB50F2
:100398000001456F4BC0E9FF4CC0EAFF190EEB5056
:1003A8000001455D26E24BC0E9FF4CC0EAFF0F0E95
:1003B800E926000EEA22E9CF45F0EACF46F04BC025
:1003C800E9FF4CC0EAFF1A0EEB500001EA6A452526
:1003D800E96E4651EA22EF50C96E4BC0E9FF4CC0A6
:1003E800EAFF1A0EE926000EEA22EF2A010E036E32
:1003F8000AD04BC0E9FF4CC0EAFF0C0EE926000EFC
:10040800EA22050EEF6EB9D0C7A85AD04BC0E9FF53
:100418004CC0EAFF0B0EE926000EEA22EF2A025032
:1004280042E0C7AA22D04BC0E9FF4CC0EAFFE9CF9F
:1004380045F0EACF46F04BC0E9FF4CC0EAFF0A0E90
:10044800EB500001EA6A4525E96E4651EA2201EBC4
:10045800EFFF4BC0E9FF4CC0EAFF0A0EE926000E89
:10046800EA22EF2A010E046E1DD04BC0E9FF4CC0F2
:10047800EAFF0E0EE926000EEA22EF2A4BC0E9FF3A
:100488004CC0EAFF0D0EE926000EEA22060EEF6EBA
:100498004BC0E9FF4CC0EAFF0C0EE926000EEA2229
:1004A800050EEF6E02D0010E046E4BC0E9FF4CC082
:1004B800EAFF0C0EE926000EEA22050EEF6E5CD06C
:1004C80002505AE04BC0E9FF4CC0EAFF0B0EE92688
:1004D800000EEA22EF2AC7AA20D04BC0E9FF4CC081
:1004E800EAFFE9CF45F0EACF46F04BC0E9FF4CC040
:1004F800EAFF0A0EEB500001EA6A4525E96E46510B
:10050800EA2201EBEFFF4BC0E9FF4CC0EAFF0A0EFD
:10051800E926000EEA22EF2A2FD0C7A410D04BC03C
:10052800E9FF4CC0EAFF0C0EE926000EEA22080E8D
:10053800EF6E010E046E010E056E026A1DD04BC0EF
:10054800E9FF4CC0EAFF0E0EE926000EEA22EF2A68
:100558004BC0E9FF4CC0EAFF0D0EE926000EEA2267
:10056800060EEF6E4BC0E9FF4CC0EAFF0C0EE92601
:10057800000EEA22050EEF6E00D0025002E1035091
:1005880002E0C6A8C6884BC0E9FF4CC0EAFF0A0EC5
:10059800EB5008081FE204501DE14BC0E9FF4CC0B6
:1005A800EAFF0C0EE926000EEA22050EEF6E4BC09C
:1005B800E9FF4CC0EAFF0E0EE926000EEA22EF2AF8
:1005C8004BC0E9FF4CC0EAFF0D0EE926000EEA22F7
:1005D800070EEF6E045041E04BC0E9FF4CC0EAFF44
:1005E8000B0EEB50E66E4BC0E9FF4CC0EAFFE9CFBB
:1005F80045F0EACF46F04BC0E9FF4CC0EAFF0A0ECF
:10060800EB500001EA6A4525E96E4651EA22E552B7
:10061800E750EF6E4BC0E9FF4CC0EAFFE9CF45F069
:10062800EACF46F045C0E6FF46C0E6FF280EE66E74
:100638004BC0E9FF4CC0EAFF0A0EEB50010FE66E13
:1006480035EC05F044E94BC0E9FF4CC0EAFF0A0E5F
:10065800E926000EEA22EF6A36D04BC0E9FF4CC00B
:10066800EAFF0E0EEB500001456F010E0001455DDB
:100678002AE34BC0E9FF4CC0EAFF0E0EEB50076EB1
:100688004BC0E9FF4CC0EAFF0D0EEB50086E4BC0A3
:10069800E9FF4CC0EAFF0B0EEB50096ED950070F6B
:1006A800E66EDACFE6FF290EE66E030EE66E35EC4F
:1006B80005F044E94BC0E9FF4CC0EAFF0E0EE926FD
:1006C800000EEA22EF6A055013E04BC0E9FF4CC068
:1006D800EAFFE9CF45F0EACF46F045C0E6FF46C05D
:1006E800E6FF2A0EE66EE66A35EC05F044E9056A8F
:1006F8004AE9E7CFD9FF1200D9CFE6FFE1CFD9FF0A
:1007080083E900EB4BF001EB4CF04BC0E9FF4CC028
:10071800EAFF0A0EE926000EEA22EF6A4BC0E9FF5B
:100728004CC0EAFF0B0EE926000EEA22EF6A4BC026
:10073800E9FF4CC0EAFF0C0EE926000EEA22050E7E
:10074800EF6E4BC0E9FF4CC0EAFF0E0EE926000E23
:10075800EA22EF6A41E9E7CFD9FF1200D9CFE6FFD5
:10076800E1CFD9FF82E99486948800EBC8FFC76A75
:10077800C66AC56A0E0EC612C78E94869488C5804E
:10078800C68A41E9E7CFD9FF1200D9CFE6FFE1CF0A
:10079800D9FF83E941E800EBE9FF01EBEAFF340EFA
:1007A800E926000EEA22EF6A00EBE9FF01EBEAFF17
:1007B800350EE926000EEA22EF6A036A040E035C8E
:1007C80017E200EBE9FF01EBEAFFE9CF45F0EACFDA
:1007D80046F003500D0D000100014551F324E96E68
:1007E800000100014651F420EA6EEF6A032AE6D7B9
:1007F80042E9E7CFD9FF1200D9CFE6FFE1CFD9FF11
:1008080087E945E803500A6E0B6A04EBE9FF05EB3C
:10081800EAFF340EE926000EEA22EF50076E04EBD9
:10082800E9FF05EBEAFFE9CF45F0EACF46F00750CC
:100838000D0D0001F3504525086EF4504621096E50
:1008480008EBE9FF09EBEAFFEF5002E0FF0E4AD0A0
:1008580008EBE9FF09EBEAFFEE5203EBEFFF08EBC9
:10086800E9FF09EBEAFF020EE926000EEA2202EB95
:10087800EFFF0AEBE6FF0BEBE6FF00EBE6FF01EB11
:10088800E6FF08EBE9FF09EBEAFF030EE926000E95
:10089800EA22E9CF45F0EACF46F045C0E6FF46C078
:1008A800E6FF69EC0AF046E904EBE9FF05EBEAFF2D
:1008B800340EE926000EEA22EF28030BE66E04EB5D
:1008C800E9FF05EBEAFF340EE926000EEA22E552BD
:1008D800E750EF6E08EBE9FF09EBEAFF010EEF6E58
:1008E800010E00D046E9E7CFD9FF1200D9CFE6FFC5
:1008F800E1CFD9FF88E945E805EBE9FF06EBEAFF18
:10090800350EE926000EEA22EF50086E05EBE9FFE6
:1009180006EBEAFFE9CF45F0EACF46F008500D0DA7
:100928000001F3504525096EF45046210A6E09EB83
:10093800E9FF0AEBEAFFEF045CE109EBE9FF0AEBE8
:10094800EAFFEE52EF50045C02E2FD0E54D009EBD0
:10095800E9FF0AEBEAFFEE52EF500B6E0C6A0BEB65
:10096800E6FF0CEBE6FF09EBE9FF0AEBEAFF030EF3
:10097800E926000EEA22E9CF45F0EACF46F045C065
:10098800E6FF46C0E6FF00EBE6FF01EBE6FF69EC99
:100998000AF046E905EBE9FF06EBEAFF350EE92622
:1009A800000EEA22EF28030BE66E05EBE9FF06EBE3
:1009B800EAFF350EE926000EEA22E552E750EF6E0F
:1009C80009EBE9FF0AEBEAFF020EE926000EEA222C
:1009D800EF50E66E02EBE9FF03EBEAFFE552E75062
:1009E800EF6E09EBE9FF0AEBEAFFEF6A0B5003D061
:1009F80002D0FC0E00D046E9E7CFD9FF1200D9CFCC
:100A0800E6FFE1CFD9FF85E900EBE6FF01EBE6FF62
:100A180002EBE6FF03EBE6FF000EE66E010EE66E64
:100A2800EBDE46E900D041E9E7CFD9FF1200D9CF84
:100A3800E6FFE1CFD9FF86E900EBE6FF01EBE6FF31
:100A480002EBE6FF03EBE6FF04EBE6FF000EE66EC3
:100A5800010EE66E4BDF47E900D041E9E7CFD9FF49
:100A68001200D9CFE6FFE1CFD9FF85E900EBE6FF19
:100A780001EBE6FF02EBE6FF03EBE6FF960EE66E00
:100A8800000EE66EB9DE46E900D041E9E7CFD9FFAE
:100A98001200D9CFE6FFE1CFD9FF86E900EBE6FFE8
:100AA80001EBE6FF02EBE6FF03EBE6FF04EBE6FFF4
:100AB800960EE66E000EE66E19DF47E900D041E9B2
:100AC800E7CFD9FF1200D9CFE6FFE1CFD9FF85E9FB
:100AD80000EBE6FF01EBE6FF02EBE6FF03EBE6FFC8
:100AE800600EE66E000EE66E87DE46E900D041E94C
:100AF800E7CFD9FF1200D9CFE6FFE1CFD9FF86E9CA
:100B080000EBE6FF01EBE6FF02EBE6FF03EBE6FF97
:100B180004EBE6FF600EE66E000EE66EE7DE47E9E0
:100B280000D041E9E7CFD9FF1200D9CFE6FFE1CFE6
:100B3800D9FF85E900EBE6FF01EBE6FF02EBE6FFF4
:100B480003EBE6FF000EE66E000EE66E55DE46E9A4
:100B580000D041E9E7CFD9FF1200D9CFE6FFE1CFB6
:100B6800D9FF86E900EBE6FF01EBE6FF02EBE6FFC3
:100B780003EBE6FF04EBE6FF000EE66E000EE66E02
:100B8800B5DE47E900D041E9E7CFD9FF12000001FF
:100B9800366B000EE66E010EE66EF7DD42E9960E44
:100BA800E66E000EE66EF1DD42E9600EE66E000EBE
:100BB800E66EEBDD42E9000EE66E000EE66EE5DD60
:100BC80042E91200D38E03001200D9CFE6FFE1CF2D
:100BD800D9FF83E900EBE9FF01EBEAFFE9CF45F034
:100BE800EACF46F000EBE9FF01EBEAFF350EE92614
:100BF800000EEA22EF500D0D000100014551F324CB
:100C0800E96E000100014651F420EA6EEF5000D071
:100C180041E9E7CFD9FF12000001365101E129D09F
:100C280093EC06F0F3CF45F0F4CF46F000014551C0
:100C3800461101E01ED071EC06F0F3CF45F0F4CF79
:100C480046F000014551461101E113D0960EE66EBB
:100C5800000EE66EBADF42E9000901E00AD0000E94
:100C6800E66E010EE66EB1DF42E9000901E001D04F
:100C7800A9DF1200ADEC06F0F3CF45F0F4CF46F053
:100C880000014551461101E123D08A860001010E79
:100C9800366F960EE66E000EE66E97DF42E90009A3
:100CA80004E00001366B8A9613D0000EE66E010E42
:100CB800E66E8BDF42E9000904E00001366B8A9694
:100CC80007D00A0EE66E31EC0BF041E98A76E1D7DF
:100CD8001200D08EF28EF28C1200F250800B800A35
:100CE80001E0010E0001456F466B800B01E046698B
:100CF80045C0F3FF46C0F4FF00D01200F250400B8D
:100D0800400A01E0010E0001456F466B800B01E0CF
:100D1800466945C0F3FF46C0F4FF00D01200F2ACAC
:100D280005D0000EF36EF46A13D012D0D6DFF3CFDD
:100D380045F0F4CF46F000014551461105E0000E9C
:100D4800F36EF46A05D004D0010EF36EF46A00D095
:100D58001200E5DFF3CF45F0F4CF46F0000145512E
:100D680046110EE1BADFF3CF47F0F4CF48F00001A7
:100D78004751481105E1010EF36EF46A05D004D01D
:100D8800000EF36EF46A00D01200DACFE4FFE2CF6F
:100D9800DAFFE9CFE4FFEACFE4FFD9CFE4FFDACF07
:100DA800E4FF41C0E4FF42C0E4FF43C0E4FF44C0A5
:100DB800E4FFF6CFE4FFF7CFE4FFF5CFE4FFF3CF8E
:100DC800E4FFF4CFE4FFFACFE4FF00EE45F0040EB1
:100DD800E80403E3EECFE4FFFBD7E6529EA603D078
:100DE8009E96F7EC00F0F2A403D0F294FAEC08F027
:100DF80010EC06F0E55200EE48F0040EE80403E3B8
:100E0800E5CFEDFFFBD7E5CFFAFFE5CFF4FFE5CF60
:100E1800F3FFE5CFF5FFE5CFF7FFE5CFF6FFE5CF29
:100E280044F0E5CF43F0E5CF42F0E5CF41F0E5CF20
:100E3800DAFFE5CFD9FFE5CFEAFFE5CFE9FFE5CF58
:100E4800DAFF1100D8CFE4FFE0CFE4FFE46EDACF99
:100E5800E4FFE2CFDAFFE9CFE4FFEACFE4FFD9CF3E
:100E6800E4FFDACFE4FF41C0E4FF42C0E4FF43C03F
:100E7800E4FF44C0E4FFF6CFE4FFF7CFE4FFF5CF8B
:100E8800E4FFF3CFE4FFF4CFE4FFFACFE4FF00EE92
:100E980045F0040EE80403E3EECFE4FFFBD7E65287
:100EA8009EA003D09E902FEC09F09EAA03D09E9A94
:100EB80087EC08F0E55200EE48F0040EE80403E37E
:100EC800E5CFEDFFFBD7E5CFFAFFE5CFF4FFE5CFA0
:100ED800F3FFE5CFF5FFE5CFF7FFE5CFF6FFE5CF69
:100EE80044F0E5CF43F0E5CF42F0E5CF41F0E5CF60
:100EF800DAFFE5CFD9FFE5CFEAFFE5CFE9FFE5CF98
:100F0800DAFFE550E5CFE0FFE5CFD8FF1000D9CFF5
:100F1800E6FFE1CFD9FF81E977E8FC0ED36E9B8C21
:100F2800D950050FE66EDACFE6FFE4EC08F042E9A7
:100F3800D9500A0FE66EDACFE6FF80EC03F042E9FB
:100F4800D950340FE66EDACFE6FF9EEC09F042E99D
:100F5800CBEC05F0936A8A6A960EE66ECEEC0AF040
:100F680041E96DEC06F09F909F9A9F869E0EE66E73
:100F7800B2EC03F041E99D86190EE66EE66A6C0E46
:100F8800E66EECEC09F043E93EEC06F0D950260F8A
:100F9800E66EDACFE6FFD950030FE66EDACFE6FF4A
:100FA8000A0EE66E4DEC05F045E9026E023404E3E4
:100FB800FC0E025C00E04DD003502A0A25E0020A2C
:100FC80020E0010A1EE0230A01E042D0D950260F92
:100FD800E66EDACFE6FF02EB45F00001466B45BF4F
:100FE800466945C0E6FF46C0E6FF0350E66EE66A7E
:100FF800D950360FE66EDACFE6FF51EC0BF048E930
:1010080028D0A6EB04F025D00450A90A11E0010A63
:101018000AE0020A01E011D0020E026E550E266E99
:10102800AA0E276E0AD0010E026E3A0E266E05D061
:10103800010E026EA30E266E00D0D950260FE66E62
:10104800DACFE6FF02EBE6FF2EEC00F043E901D031
:1010580000D0D950260FE66EDACFE6FFD950030F3D
:10106800E66EDACFE6FF0A0EE66E1BEC05F045E900
:10107800026E023404E3FC0E025C00E03FD0035031
:101088001E0A20E0010A1EE0140A01E036D0D950F9
:10109800260FE66EDACFE6FF02EB45F00001466B5D
:1010A80045BF466945C0E6FF46C0E6FF0350E66E09
:1010B800E66AD950340FE66EDACFE6FFADEC09F0F8
:1010C80048E91CD0D950260FE66EDACFE6FF02EBCE
:1010D80045F00001466B45BF466945C0E6FF46C07E
:1010E800E6FF0350E66EE66AD950320FE66EDACFB5
:1010F800E6FFB3EC0AF048E901D000D045D778E91B
:10110800E7CFD9FF12009EAA4CD094EC0AF0E66E05
:1011180049C0E9FF4AC0EAFFE9CF45F0EACF46F007
:1011280049C0E9FF4AC0EAFF040EEB500001EA6A31
:101138004525E96E4651EA22E552E750EF6E49C06F
:10114800E9FF4AC0EAFF040EE926000EEA22EF2A68
:1011580049C0E9FF4AC0EAFF040EEB50040821E148
:1011680049C0E9FF4AC0EAFFE9CF45F0EACF46F0B7
:1011780045C0E6FF46C0E6FF1F0EE66E49C0E9FF20
:101188004AC0EAFF040EEB50E66E03EC05F044E9B2
:1011980049C0E9FF4AC0EAFF040EE926000EEA2228
:1011A800EF6A00014EA70BD0AB98AB88000EE66E35
:1011B800E66A1E0EE66EE66A03EC05F044E91200E4
:1011C800D9CFE6FFE1CFD9FF83E900EB49F001EB86
:1011D8004AF049C0E9FF4AC0EAFF040EE926000EBA
:1011E800EA22EF6A41E9E7CFD9FF1200D9CFE6FF3B
:1011F800E1CFD9FF81E946E88A70000EE66EE66A1B
:1012080019EC0BF042E9D950010FE66EDACFE6FF90
:10121800D950050FE66EDACFE6FF020EE66EB1ECA6
:1012280005F045E9036E046AE8BE0468020E031877
:1012380001E104500CE1D950010FE66EDACFE6FF68
:101248000A0EE66E020EE66E35EC05F044E947E953
:10125800E7CFD9FF1200D9CFE6FFE1CFD9FF81E967
:1012680042E88A7201EC0BF0F350016EF450026E02
:10127800000EE66EE66A0B0EE66EE66A03EC05F013
:1012880044E9000EE66EE66AE9EC0AF042E943E951
:10129800E7CFD9FF1200060EF66E000EF76E000EAD
:1012A800F86E00010900F5503C6F0900F5503D6FDC
:1012B80003E13C6701D03DD00900F550376F0900C4
:1012C800F550386F0900F550396F09000900F550DD
:1012D800E96E0900F550EA6E090009000900F550A9
:1012E8003A6F0900F5503B6F09000900F6CF3EF050
:1012F800F7CF3FF0F8CF40F037C0F6FF38C0F7FF20
:1013080039C0F8FF00013A5302E13B5307E00900F6
:10131800F550EE6E3A07F8E23B07F9D73EC0F6FF04
:101328003FC0F7FF40C0F8FF00013C07000E3D5BDF
:10133800BFD71200D9CFE6FFE1CFD9FF83E900EB91
:10134800E9FF01EBEAFFEE6AED6A41E9E7CFD9FF71
:101358001200D9CFE6FFE1CFD9FF89E941E806EBD2
:10136800E9FF07EBEAFFEE2A000EEF220A0EE66E0F
:10137800E66A06EBE9FF07EBEAFFEECFE6FFEECF02
:10138800E6FF3CEC0AF0E552E5CF46F0E7CF45F042
:101398000001090E451901E1465116E106EBE9FF86
:1013A80007EBEAFFE9CF45F0EACF46F045C0E6FF94
:1013B80046C0E6FF140EE66E020EE66E99EC05F0E6
:1013C80044E9096E093400E342E9E7CFD9FF120086
:1013D800D9CFE6FFDACFE6FFE1CFD9FFE2CFDAFFD8
:1013E80085E9AC6AAB6A02B0AC8802A202D0AC8CC8
:1013F800AB8C02B4AC8E02A602D0AB8801D0AB8A0B
:1014080002B8AC849E9802BAAB8602AC02D09D8A20
:1014180001D09D9A9E9A02AE02D09D8801D09D98D7
:1014280000EBAFFF000101EB45F0466B45C0B0FF94
:10143800AC8AAB8E949C948EAC50100B04E0AC50EC
:10144800800B01E1948C41E9E5CFDAFFE7CFD9FFC2
:10145800120043E8D9CFE6FFDACFE6FFE1CFD9FFA4
:10146800E2CFDAFF89E9066A1200F3DF068003D0CB
:10147800F0DF01D00682056A046A100EE76ED89084
:1014880002360336043605360050045C0150055810
:1014980005E30050045E0150055A022AE72EF0D7F2
:1014A80006B2120006B006D084EB00F085EB01F01E
:1014B80006A004D082EB00F083EB01F0E552E5CF03
:1014C800DAFFE7CFD9FF45E91200D9CFE6FFDACF37
:1014D800E6FFFA0EE3CFD9FFFB0EE3CFDAFFFC0EEF
:1014E800E3CFE9FFFD0EE3CFEAFFE9CFF3FFEACF51
:1014F800F4FFF80EE35003E1F90EE35008E0F80EAC
:10150800E30602E2F90EE306DECFEEFFF2D7FF0EA6
:10151800E3CFDAFFE552FF0EE3CFD9FFE552120021
:10152800D9CFE6FFDACFE6FFE1CFD9FFE2CFDAFF86
:1015380082E941E8F20E00014E17ABAC03D04E91A0
:10154800ABB04E81ABB44E85ABB24E87AE50026E97
:10155800025042E9E5CFDAFFE7CFD9FF1200D9CF31
:10156800E6FFE1CFD9FF89E91E0E041801E1055015
:1015780001E10CD01F0E041801E1055007E10050ED
:101588000224E96E01500320EA6EEF6A41E9E7CFD1
:10159800D9FF1200D9CFE6FFDACFE6FFE1CFD9FFB6
:1015A800E2CFDAFF83E97F0E0014D56ED76AD66AD8
:1015B800F29400AE02D0F28A01D0F29AD58E41E9B7
:1015C800E5CFDAFFE7CFD9FF1200D9CFE6FFDACFB0
:1015D800E6FFE1CFD9FFE2CFDAFF84E942E880EB0A
:1015E80004F081EB05F005EBCFFF04EBCEFF43E9F8
:1015F800E5CFDAFFE7CFD9FF1200D9CFE6FFDACF80
:10160800E6FFE1CFD9FFE2CFDAFF82E942E8CE5028
:10161800026ECF50036E02EBF3FF03EBF4FF43E9D6
:10162800E5CFDAFFE7CFD9FF1200D9CFE6FFDACF4F
:10163800E6FFE1CFD9FFE2CFDAFF84E942E880EBA9
:1016480004F081EB05F005EBD7FF04EBD6FF43E987
:10165800E5CFDAFFE7CFD9FF1200FF0EE350000114
:101668004D6F480E01D04C0EE76EE72EFED7E76AA5
:10167800E72EFED74D2FF7D71200000EF36E00EEBF
:1016880000F00D0E01D81200EA6002D0EE6AFCD715
:10169800F350E9601200EE6AFCD7D9CFE6FFE1CF3C
:1016A800D9FF89E942E880EB09F081EB0AF043E9C8
:1016B800E7CFD9FF12001CEE00F02CEE00F0F86A1C
:1016C8004FEC09F007EC00F08BEC07F0FBD71200A9
:020000040030CA
:0300010008191EBD
:0200050080C0B9
:00000001FF
